:020000040800F2
:1000000000000120811D0008391800083B18000875
:100010003D1800083F1800084118000800000000C3
:10002000000000000000000000000000431800086D
:10003000451800080000000047180008491800088B
:10004000D11D0008D11D0008D11D0008D11D0008D8
:10005000D11D0008D11D0008D11D0008D11D0008C8
:10006000D11D0008D11D0008D11D0008D11D0008B8
:10007000D11D0008D11D0008D11D0008D11D0008A8
:100080004D180008D11D0008D11D0008D11D000821
:10009000D11D0008D11D0008D11D0008D11D000888
:1000A000D11D0008D11D0008D11D0008D11D000878
:1000B000591800080000000000000000D11D0008D1
:1000C000D11D00080000000000000000D11D000844
:1000D00000000000D11D00086518000800000000A5
:1000E000D11D0008D11D0008000000000000000024
:1000F0000000000000000000000000000000000000
:10010000000000000000000000000000D11D0008F9
:100110000000000000000000D11D0008D11D0008F3
:10012000D11D0008D11D0008D11D0008D11D0008F7
:10013000D11D0008000000000000000000000000C9
:10014000D11D0008D11D0008D11D0008D11D0008D7
:10015000D11D0008D11D0008D11D0008D11D0008C7
:10016000D11D0008D11D0008D11D000800000000AD
:10017000D11D0008D11D0008000000000000000093
:0C018000D11D0008D11D0008D11D000891
:1001900010B5054C237833B9044B13B10448AFF3C1
:1001A00000800123237010BD0C020020000000001D
:1001B000B8B3000808B5034B1BB103490348AFF3BC
:1001C000008008BD0000000010020020B8B3000845
:1001D000034613F8012B002AFBD1181A0138704787
:1001E00001F0FF01102A2BDB10F0070F08D010F8E8
:1001F000013B013A8B422DD010F0070F42B3F6D1EC
:10020000F0B441EA012141EA014122F007047FF004
:1002100000070023F0E80256083C85EA010586EA5B
:10022000010685FA47F5A3FA87F586FA47F6A5FA97
:1002300087F68EB9EED1F0BC01F0FF0102F00702A3
:1002400032B110F8013B013A83EA010313B1F8D14E
:100250000020704701387047002D06BF354603382F
:10026000073815F0010F07D1013015F4807F02BF68
:10027000013015F4C03F0130F0BC0138704700BFB9
:1002800081F0004102E000BF83F0004330B54FEA47
:1002900041044FEA430594EA050F08BF90EA020FB4
:1002A0001FBF54EA000C55EA020C7FEA645C7FEA47
:1002B000655C00F0E2804FEA5454D4EB5555B8BF6A
:1002C0006D420CDD2C4480EA020281EA030382EADB
:1002D000000083EA010180EA020281EA0303362D6D
:1002E00088BF30BD11F0004F4FEA01314FF4801C40
:1002F0004CEA113102D0404261EB410113F0004F52
:100300004FEA03334CEA133302D0524263EB430308
:1003100094EA050F00F0A780A4F10104D5F1200EA6
:100320000DDB02FA0EFC22FA05F2801841F1000101
:1003300003FA0EF2801843FA05F359410EE0A5F1D5
:1003400020050EF1200E012A03FA0EFC28BF4CF006
:10035000020C43FA05F3C01851EBE37101F00045BC
:1003600007D54FF0000EDCF1000C7EEB00006EEBC9
:100370000101B1F5801F1BD3B1F5001F0CD3490853
:100380005FEA30004FEA3C0C04F101044FEA4452AA
:1003900012F5800F80F09A80BCF1004F08BF5FEA31
:1003A000500C50F1000041EB045141EA050130BD11
:1003B0005FEA4C0C404141EB0101013C28BFB1F523
:1003C000801FE9D291F0000F04BF01460020B1FA6E
:1003D00081F308BF2033A3F10B03B3F120020CDA41
:1003E0000C3208DD02F1140CC2F10C0201FA0CF01F
:1003F00021FA02F10CE002F11402D8BFC2F1200C84
:1004000001FA02F120FA0CFCDCBF41EA0C01904039
:10041000E41AA2BF01EB0451294330BD6FEA040482
:100420001F3C1CDA0C340EDC04F11404C4F120026D
:1004300020FA04F001FA02F340EA030021FA04F37F
:1004400045EA030130BDC4F10C04C4F1200220FAD6
:1004500002F001FA04F340EA0300294630BD21FA14
:1004600004F0294630BD94F0000F83F4801306BFDA
:1004700081F480110134013D4EE77FEA645C18BFCE
:100480007FEA655C29D094EA050F08BF90EA020F65
:1004900005D054EA000C04BF1946104630BD91EA5D
:1004A000030F1EBF0021002030BD5FEA545C05D160
:1004B0004000494128BF41F0004130BD14F580049F
:1004C0003CBF01F5801130BD01F0004545F0FE4113
:1004D00041F470014FF0000030BD7FEA645C1ABF48
:1004E000194610467FEA655C1CBF0B46024650EA7F
:1004F000013406BF52EA033591EA030F41F40021AB
:1005000030BD00BF90F0000F04BF0021704730B530
:100510004FF4806404F132044FF000054FF0000105
:1005200050E700BF90F0000F04BF0021704730B5C6
:100530004FF4806404F1320410F0004548BF40429B
:100540004FF000013EE700BF42004FEAE2014FEAF0
:1005500031014FEA02701FBF12F07F4393F07F4FCB
:1005600081F06051704732F07F4208BF704793F0CE
:100570007F4F04BF41F40021704730B54FF46074E1
:1005800001F0004521F000411CE700BF50EA0102E4
:1005900008BF704730B54FF000050AE050EA01028D
:1005A00008BF704730B511F0004502D5404261EBFD
:1005B00041014FF4806404F132045FEA915C3FF43E
:1005C000D8AE4FF003025FEADC0C18BF03325FEADB
:1005D000DC0C18BF033202EBDC02C2F1200300FA8C
:1005E00003FC20FA02F001FA03FE40EA0E0021FAB1
:1005F00002F11444BDE600BF70B54FF0FF0C4CF49F
:10060000E06C1CEA11541DBF1CEA135594EA0C0F50
:1006100095EA0C0F00F0DEF82C4481EA030621EA8B
:100620004C5123EA4C5350EA013518BF52EA0335C6
:1006300041F4801143F4801338D0A0FB02CE4FF078
:100640000005E1FB02E506F00042E0FB03E54FF0A8
:100650000006E1FB03569CF0000F18BF4EF0010EA0
:10066000A4F1FF04B6F5007F64F5407404D25FEA9C
:100670004E0E6D4146EB060642EAC62141EA55514F
:100680004FEAC52040EA5E504FEACE2EB4F1FD0C91
:1006900088BFBCF5E06F1ED8BEF1004F08BF5FEA0F
:1006A000500E50F1000041EB045170BD06F00046C1
:1006B00046EA010140EA020081EA0301B4EB5C046E
:1006C000C2BFD4EB0C0541EA045170BD41F4801166
:1006D0004FF0000E013C00F3AB8014F1360FDEBF8B
:1006E000002001F0004170BDC4F10004203C35DA67
:1006F0000C341BDC04F11404C4F1200500FA05F3EA
:1007000020FA04F001FA05F240EA020001F000428A
:1007100021F0004110EBD37021FA04F642EB060100
:100720005EEA430E08BF20EAD37070BDC4F10C042A
:10073000C4F1200500FA04F320FA05F001FA04F2EE
:1007400040EA020001F0004110EBD37041F10001DA
:100750005EEA430E08BF20EAD37070BDC4F12005E5
:1007600000FA05F24EEA020E20FA04F301FA05F24D
:1007700043EA020321FA04F001F0004121FA04F2F5
:1007800020EA020000EBD3705EEA430E08BF20EAC5
:10079000D37070BD94F0000F0FD101F000464000FF
:1007A00041EB010111F4801F08BF013CF7D041EA81
:1007B000060195F0000F18BF704703F00046520085
:1007C00043EB030313F4801F08BF013DF7D043EA56
:1007D0000603704794EA0C0F0CEA135518BF95EA0C
:1007E0000C0F0CD050EA410618BF52EA4306D1D193
:1007F00081EA030101F000414FF0000070BD50EAB2
:10080000410606BF1046194652EA430619D094EA3B
:100810000C0F02D150EA013613D195EA0C0F05D125
:1008200052EA03361CBF104619460AD181EA030179
:1008300001F0004141F0FE4141F470014FF0000031
:1008400070BD41F0FE4141F4780170BD70B54FF0CC
:10085000FF0C4CF4E06C1CEA11541DBF1CEA13554C
:1008600094EA0C0F95EA0C0F00F0A7F8A4EB05042E
:1008700081EA030E52EA03354FEA013100F0888025
:100880004FEA03334FF0805545EA131343EA1263EE
:100890004FEA022245EA111545EA10654FEA0026A3
:1008A0000EF000419D4208BF964244F1FD0404F55C
:1008B000407402D25B084FEA3202B61A65EB0305B8
:1008C0005B084FEA32024FF480104FF4002CB6EB75
:1008D000020E75EB030E22BFB61A754640EA0C00F5
:1008E0005B084FEA3202B6EB020E75EB030E22BF35
:1008F000B61A754640EA5C005B084FEA3202B6EB76
:10090000020E75EB030E22BFB61A754640EA9C0034
:100910005B084FEA3202B6EB020E75EB030E22BF04
:10092000B61A754640EADC0055EA060E18D04FEAC2
:10093000051545EA16754FEA06164FEAC30343EA62
:1009400052734FEAC2025FEA1C1CC0D111F4801F2F
:100950000BD141EA00014FF000004FF0004CB6E728
:1009600011F4801F04BF01430020B4F1FD0C88BFC7
:10097000BCF5E06F3FF6AFAEB5EB030C04BFB6EBD2
:10098000020C5FEA500C50F1000041EB045170BDC5
:100990000EF0004E4EEA113114EB5C04C2BFD4EBF2
:1009A0000C0541EA045170BD41F480114FF0000E76
:1009B000013C90E645EA060E8DE60CEA135594EAF2
:1009C0000C0F08BF95EA0C0F3FF43BAF94EA0C0FF5
:1009D0000AD150EA01347FF434AF95EA0C0F7FF46A
:1009E00025AF104619462CE795EA0C0F06D152EABE
:1009F00003353FF4FDAE1046194622E750EA4106A2
:100A000018BF52EA43067FF4C5AE50EA41047FF4B2
:100A10000DAF52EA43057FF4EBAE12E74FF0FF3C17
:100A200006E000BF4FF0010C02E000BF4FF0010CE8
:100A30004DF804CD4FEA410C7FEA6C5C4FEA430C61
:100A400018BF7FEA6C5C1BD001B050EA410C0CBFB0
:100A500052EA430C91EA030F02BF90EA020F002012
:100A6000704710F1000F91EA030F58BF994208BF79
:100A700090422CBFD8176FEAE37040F00100704736
:100A80004FEA410C7FEA6C5C02D150EA013C07D18D
:100A90004FEA430C7FEA6C5CD6D152EA033CD3D0D8
:100AA0005DF8040B704700BF8446104662468C46D2
:100AB0001946634600E000BF01B5FFF7B7FF002805
:100AC00048BF10F1000F01BD4DF808EDFFF7F4FF2E
:100AD0000CBF012000205DF808FB00BF4DF808EDB9
:100AE000FFF7EAFF34BF012000205DF808FB00BFDC
:100AF0004DF808EDFFF7E0FF94BF012000205DF8FE
:100B000008FB00BF4DF808EDFFF7CEFF94BF0120B2
:100B100000205DF808FB00BF4DF808EDFFF7C4FFAB
:100B200034BF012000205DF808FB00BF4A0011D24D
:100B300012F5001211D20DD56FF47873B3EB625237
:100B40000ED44FEAC12343F0004343EA505323FA43
:100B500002F070474FF00000704750EA013002D1B8
:100B60004FF0FF3070474FF00000704753B94AB95B
:100B7000002908BF00281CBF4FF0FF314FF0FF30A5
:100B800000F0BEB9ADF1080C6DE904CE00F03CF800
:100B9000DDF804E0DDE9022304B0704738B5002237
:100BA000002304460D46FFF799FF28B92046294641
:100BB000BDE8384000F00AB8204605F1004100F0D9
:100BC00005F8404261EB410138BD00BFD0B50C4B88
:100BD000002206460F46FFF70FFDFFF7A7FF04466A
:100BE000FFF790FC074B0022FFF706FD02460B467D
:100BF00030463946FFF748FBFFF798FF2146D0BD46
:100C00000000F03D0000F0412DE9F047089D8E46C0
:100C100004468846002B4AD18A42174662D9B2FA66
:100C200082F64EB1C6F1200301FA06F820FA03F36A
:100C3000B74043EA0808B4404FEA174E1FFA87FC52
:100C4000B8FBFEF1230C0EFB118843EA084301FBBD
:100C50000CF29A4209D9FB1801F1FF3080F0EA80CA
:100C60009A4240F2E78002393B449A1AA3B2B2FB9F
:100C7000FEF00EFB102243EA024300FB0CFC9C45F5
:100C800009D9FB1800F1FF3280F0D6809C4540F274
:100C9000D3803B44023840EA0140A3EB0C0300211F
:100CA0001DB1F3400022C5E90032BDE8F0878B4258
:100CB00005D90DB1C5E9000100210846F5E7B3FAF1
:100CC00083F1002946D1734502D3824200F20581A7
:100CD000841A6EEB030201209046002DE5D0C5E991
:100CE0000048E2E7002A00F09080B2FA82F6002E77
:100CF00040F0A4808A1A030C4FEA174E80B2BCB2AF
:100D00000121B2FBFEFC0EFB1C2243EA024304FB62
:100D10000CF29A4207D9FB180CF1FF3802D29A4222
:100D200000F2E080C4469B1AB3FBFEF20EFB1233C6
:100D300040EA034302FB04F49C4207D9FB1802F18A
:100D4000FF3002D29C4200F2CA8002461B1B42EADC
:100D50000C40A5E7C1F120068B4022FA06F71F439D
:100D60000EFA01F420FA06F32EFA06FE4FEA1749AE
:100D7000234300FA01F81FFA87FCBEFBF9F01C0CB4
:100D800009FB10EE44EA0E4400FB0CFEA64502FAF5
:100D900001F209D93C1900F1FF3A80F09C80A64588
:100DA00040F2998002383C44A4EB0E041FFA83FE03
:100DB000B4FBF9F309FB13444EEA044403FB0CFCB7
:100DC000A44508D93C1903F1FF3E80F08280A44578
:100DD0007FD9023B3C4443EA0040A4EB0C04A0FB57
:100DE00002EC64457346E14662D35FD05DB1B8EB77
:100DF000030264EB090404FA06F622FA01F31E4327
:100E0000CC40C5E9006400214FE7B1FBF2FC010CC6
:100E100041EA0E4180B240EA01423B4638463C4638
:100E2000B846BE462026B1FBF7F1A2EB080241EA24
:100E30000C4166E7014618E710462CE7C6F1200290
:100E40002EFA02F3B740B14020FA02F24FEA174EF1
:100E50000A43B3FBFEF8BCB20EFB1833110C41EA97
:100E6000034108FB04F9B04089454FEA104380B2C2
:100E70003ED9791808F1FF3C01D289451FD8A1EB72
:100E80000901B1FBFEF909FB04F80EFB191192B23E
:100E900042EA0142424529D2BA1809F1FF31C4D2CF
:100EA0004245C2D2A9F102013A44BEE7F0459DD2C3
:100EB000BEEB02036CEB070C0138E14696E7A7EBAB
:100EC00009094944A8F1020CB1FBFEF909FB04F839
:100ED000DBE773467FE7504666E70846FDE63B449E
:100EE000023A33E7ACF1020C3B441CE749469CE76D
:100EF000A1EB0901C446B1FBFEF909FB04F8C4E704
:100F0000704700BF80B588B000F06AF82748284EC7
:100F1000284F00F067FB012000F0EAF800F0AEFA7D
:100F200011230793244B06934FF480730593234BAF
:100F30000493234B039300230293224B0193224BF0
:100F40000093224A224B2349234803F075FE4FF0B9
:100F50000008002400F062FB0D28054613D11F484D
:100F600000F06AFB23465A1C0A21002AF15406F8B5
:100F70000280EEDD3046FFF72BF931460246164877
:100F800003F093FEE3E70A28E9D0082805D13846A4
:100F900000F052FB631E1C46DCE700F059FBFF2CFF
:100FA000355504F10103F6D1DDE700BFD806002076
:100FB0002802002052B60008C4030020E6030020E7
:100FC00036B600083CB6000846B6000824000020EB
:100FD00098BC0008D0B900082C0300203AB80008DB
:100FE0001FB5154BDA6C42F00402DA64DA6C02F0D9
:100FF00004020192019ADA6C42F00102DA64DA6CBE
:1010000002F001020292029ADA6C42F00202DA6401
:10101000DB6C03F002030393002240214FF0904069
:10102000039B01F077F905494FF0904005B05DF85A
:1010300004EB01F0B1B800BF001002400000002036
:1010400078B9481C11D1511C1CBF09498A605A1C2F
:1010500018BF074A064918BFD3604FF0904001F00F
:101060009BB80448982100F0FFBA01484160EAE7C4
:1010700000000020BCB90008024B142202FB003320
:101080005868704700000020024B142202FB003316
:101090009868704700000020024B142202FB0033C6
:1010A000D86870470000002038B90A1E18BF012216
:1010B00040214FF0904001F02DB90248F62100F098
:1010C000D3BA00BFAEB9000808B540B940214FF00F
:1010D000904001F019F9003818BF012008BD0348FD
:1010E0004FF4897100F0C0FA0020F7E7A1B90008B9
:1010F000021E18BF01220248082101F00BB900BFEF
:10110000000400480020704701207047012070470C
:1011100030B587B0134901236A4604F077FDE8B182
:10112000DDE902450022002320462946FFF7F4FCB2
:10113000A0B100224FF0804320462946FFF7CEFCA5
:1011400060B1094B002220462946FFF79DF8FFF7C2
:10115000EDFC064B1870012007B030BD4FF0FF309A
:10116000FAE700BF48BE00080000F03F2A03002055
:1011700008B5034B597A03F0F7FF012008BD00BF03
:101180001400002008B5034B197A03F0EDFF01208D
:1011900008BD00BF1400002013B501220DF10701A6
:1011A00004F0D6FAF8B19DF80740104B5C7294B188
:1011B000D3E900011A7A00F063FC0D4803686FF070
:1011C00001021A6101F0D6FF0A48002102F01CFB5F
:1011D000012002B010BD064801F0F6FF2146054887
:1011E00002F064FBF4E74FF0FF30F2E71400002058
:1011F000F80500204406002008B5034B596803F0A9
:1012000086FE012008BD00BF1400002008B5034B76
:10121000196803F07CFE012008BD00BF1400002007
:1012200008B5034B1978013103F071FE012008BDA8
:101230002A03002008B5002103F069FE012008BD43
:1012400037B50B4B04461878FFF726FF01AA014675
:10125000084804F051FA019D2846FEF7B9FF2946D7
:101260000246204603F0C6FD012003B030BD00BF9A
:101270002A03002098BB000807B50123094901AAE9
:1012800004F0BAFA58B10848019B00784FF0FF32D9
:101290001146FFF7D5FE012003B05DF804FB4FF0C7
:1012A000FF30F9E798BB00082A03002007B50123A7
:1012B000094901AA04F0A0FA58B10848019A007837
:1012C0004FF0FF331946FFF7BBFE012003B05DF876
:1012D00004FB4FF0FF30F9E7C0BB00082A030020F1
:1012E00007B50123094901AA04F086FA58B1084854
:1012F000019900784FF0FF331A46FFF7A1FE012055
:1013000003B05DF804FB4FF0FF30F9E7E0BB0008E5
:101310002A03002037B50B4B04461878FFF7B4FEBC
:1013200001AA0146084804F0E7F9019D2846FEF7A6
:101330004FFF29460246204603F05CFD012003B022
:1013400030BD00BF2A030020C0BB000810B5054B0C
:1013500004461878FFF7B8FE0146204603F0D7FD93
:10136000012010BD2A03002007B501220DF107015D
:1013700004F0EEF948B1064B9DF807101878FFF716
:1013800093FE012003B05DF804FB4FF0FF30F9E756
:101390002A03002037B50B4B04461878FFF76CFE84
:1013A00001AA0146084804F0A7F9019D2846FEF766
:1013B0000FFF29460246204603F01CFD012003B022
:1013C00030BD00BF2A030020E0BB000807B50122A2
:1013D0000DF1070104F0BCF938B19DF80700FFF7E3
:1013E00087FE012003B05DF804FB4FF0FF30F9E702
:1013F00008B50846114600F018F9012008BD012083
:101400007047000072B6024B1B68586262B67047A4
:10141000F80500207FB50B4901236A4604F0F6FB6E
:1014200060B1DDE90201FFF781FB074BD86080B2B4
:10143000FFF7E8FF012007B05DF804FB4FF0FF3035
:10144000F9E700BF48BE00081400002072B6024B46
:101450001B68586A62B67047F805002010B504464C
:10146000FFF7F4FF044B0146D8600A22204603F040
:101470005EFD012010BD00BF1400002008B5002152
:10148000064802F013FA064801F09EFE054BD3E928
:1014900000011A7ABDE8084000F0F2BA44060020C4
:1014A000F80500201400002007B501220DF1070106
:1014B00004F04EF948B1064B9DF807201A72FFF769
:1014C000DDFF012003B05DF804FB4FF0FF30F9E7CA
:1014D000140000207FB50A4901236A4604F096FBF8
:1014E00058B1DDE90201FFF721FB064B5860FFF719
:1014F000C5FF012007B05DF804FB4FF0FF30F9E7AE
:1015000048BE0008140000207FB50A4901236A463E
:1015100004F07CFB58B1DDE90201FFF707FB064B45
:101520001860FFF7ABFF012007B05DF804FB4FF038
:10153000FF30F9E748BE000814000020064B1B6886
:101540005B6F1B685868054B1B681844A0F58073D7
:1015500058425841704700BFF0050020EC040020BD
:10156000024BD0F884201A60704700BFE8040020C6
:101570000F4A136810B553B1002313600D4A0E498A
:1015800013600E4B4FF48072186802F059FEFFF79B
:10159000D5FF034648B9074A074C1068411CFF298C
:1015A000D8BF0B46205C136010BD4FF0FF30FBE747
:1015B000E8040020EC040020F0040020F0050020E6
:1015C00010B5074B1A680144884201D1002010BDB4
:1015D0001368DC692406FCD510F8014B1C85F3E781
:1015E000F0050020034B044918604FF4807202F0AC
:1015F00027BE00BFF0050020F004002010B5064B08
:101600001968013810F8013F03B910BD0A68D469A0
:101610002406FBD51385F5E7F005002008B5FFF794
:10162000A7FF0028FBDBC0B208BD002903DD10B115
:1016300089B2FFF7C5BF704710B5044638B1FEF751
:10164000C7FD81B22046BDE81040FFF7B9BF10BD0D
:1016500007B501218DF807000DF10700FFF7B0FF76
:1016600003B05DF804FB000000B50346A3B072B6FA
:10167000044A009102A8802107F078FD02A8FFF734
:10168000BDFFFEE720B800080A4B07B59A6C42F090
:1016900001029A649B6C002203F00103019311463E
:1016A0001020019B00F0F0FB102003B05DF804EB6C
:1016B00000F01CBC0010024070B588B0142200215C
:1016C00003A807F0E6FD204B204DDA6C42F004023F
:1016D000DA64DA6C02F004020092009ADA6C42F0EA
:1016E0000102DA64DA6C02F001020192019ADA6C0A
:1016F00042F00202DA64DB6C03F002030293002280
:1017000040214FF09040029B00F004FE002228464A
:10171000082100F0FFFD01264023CDE90336002417
:10172000032303A94FF09040CDE9054300F034FDB9
:10173000082303A92846CDE90336CDE9054400F086
:101740002BFD08B070BD00BF00100240000400482F
:1017500030B597B04422002105A8142507F099FD63
:101760002A460021684607F094FD4FF4007000F00F
:10177000E7FD044608B172B6FEE700F0D1FD184A55
:10178000D2F8903023F01803C2F890306022012381
:101790000D9202222820CDE90B34CDE90F230793C7
:1017A00011930723CDE9120305A8CDE9142205956D
:1017B00000F088FE08B172B6FEE7CDE902000F2204
:1017C0000323049004216846CDE9002301F01CF9AD
:1017D00008B172B6FEE701F0D9FB17B030BD00BF0B
:1017E0000010024008B500F01BFBFFF7B1FFFFF748
:1017F00063FFFFF749FF00F037FA00F09BF8FFF7AF
:1018000081FBFEE772B6FEE70A4B1A6E42F0010258
:1018100082B01A661A6E02F001020092009A9A6D66
:1018200042F080529A659B6D03F080530193019BB7
:1018300002B0704700100240FEE7FEE7FEE7FEE759
:10184000FEE770477047704700F0FABA014800F0B1
:1018500058BC00BF90060020014801F0D2BC00BF78
:10186000F8050020014802F0F7B800BFD8060020B4
:101870000120704708B507F099FD162303604FF06B
:10188000FF3008BD08B507F091FD16230360FEE7A1
:1018900070B50D4614460E46731B9C4201DC204673
:1018A00070BDAFF3008006F8010BF5E770B50D468B
:1018B00014460E46731B9C4201DC204670BD16F890
:1018C000010BAFF30080F5E74FF0FF3070474FF4A6
:1018D00000534B6000207047012070470020704784
:1018E0000B4A116810B5034609B90A49116010681E
:1018F00009490A4C0344091B8B4206D907F056FDDF
:101900000C2303604FF0FF3010BD1360FCE700BFF5
:10191000F4050020B00800200000012000040000B1
:10192000034AD2F8883043F47003C2F88830704715
:1019300000ED00E010B588B01422002103A807F0E4
:10194000A8FC164800234FF08042C0E900234FF066
:10195000FF32CDE90033C0E9032302938360836142
:1019600001F02CFD08B1FFF74DFF00240722602392
:101970000A48059403A9CDE90323079401F09EFECC
:1019800008B1FFF73FFF054800946946029401F053
:101990008FFF08B1FFF736FF08B010BDF805002033
:1019A0000268084B9A4282B00AD103F564431A6E6A
:1019B00042F400621A661B6E03F400630193019BFC
:1019C00002B07047002C014010B5044688B01422C4
:1019D000002103A807F05DFC2368B3F1804F25D1F7
:1019E00003F5043303A99A6D42F001029A659A6DDA
:1019F00002F001020192019ADA6C42F00102DA640B
:101A0000DB6C03F001030293029B0223CDE9033355
:101A10004FF090400123079300F0BEFB00221C20F2
:101A2000114600F031FA1C2000F060FA08B010BD39
:101A300010B5044686B01422002101A807F029FC45
:101A400022680E4B9A4216D103F5644301A9DA6C61
:101A500042F00102DA64DB6C03F001030093009BA7
:101A60004FF480720223CDE901234FF0904001230F
:101A7000059300F091FB06B010BD00BF002C0140A3
:101A80002DE9F04FA3B00024064601911C22214607
:101A900010A8CDE908440A9407F0FBFB2C2221464C
:101AA00017A807F0F6FB002E00F0CF80019B002B5B
:101AB00000F0CB80019A674BB3FBF6F3934240F200
:101AC000C48001F05DF807A980460BA8079401F0D7
:101AD00069F80F9B0BB14FEA48080025CDE9035583
:101AE0004FF0FF3337460124AB460095AA460293D8
:101AF0000593780840EAC57010EB08004FEA5501DD
:101B00002B4641F100013A46FFF730F88146013893
:101B100061F10003B0F5803F73F1000323D20BFBAA
:101B200009F304FB0133A9FB04210B4440460021C7
:101B3000FFF71CF8029A864234BF831B331A934284
:101B4000059A4FF0000171EB02020CD2621E92B2B4
:101B500009F1FF3903921FFA89FA00908BB10293C1
:101B6000012305910493BF1945F1000501344BF1A0
:101B7000000BA4F1011353EA0B03BAD1049B002B11
:101B800063D0DDE900120AF10104A2FB0101324A2F
:101B9000A0FB04058018314A0AFB011141EB050145
:101BA0000023824273EB010252D20023294AFEF73E
:101BB000DDFF0B46A04273F1000338BF04462848FE
:101BC000284B0360039B436000258023C0E9025A31
:101BD000C0E90455A4B2836101F020FC08B1FFF70D
:101BE00011FE1F480A9508A9CDE9085501F060FECD
:101BF00008B1FFF707FE6023CDE910340024184830
:101C00001694224610A9CDE91244CDE9144401F0FE
:101C10006DFC08B1FFF7F6FD4FF40053CDE91C341D
:101C20000F481B944FF0007317A9CDE91744CDE975
:101C30001944CDE91F341E94219401F06BFE08B1C4
:101C4000FFF7E0FD0648FFF7F3FE23B0BDE8F08F95
:101C50000120AFE740420F0020A107003F420F00E4
:101C600044060020002C01400C480D4A08B54FF4F2
:101C7000E133C0E9002300230C22C0E90233C0E9AC
:101C80000523C0E907330361436202F05CFA18B12F
:101C9000BDE80840FFF7B6BD08BD00BFD80600206C
:101CA00000440040F0B59DB006461422002102A871
:101CB00007F0EFFA5422002107A807F0EAFA326889
:101CC0002B4B9A4252D1022307A8079301F00EF83A
:101CD00008B1FFF797FD274B9A6D42F400329A65E1
:101CE0009A6D02F400320092009ADA6C42F001021E
:101CF000DA64DB6C03F0010301930227019B0423E8
:101D000000250324CDE9023702A907234FF09040B4
:101D1000CDE90454069300F03FFA4FF400434FF02E
:101D2000904002A9CDE90237CDE90454069400F0B1
:101D300033FA114C114BA561C4E900378023C4E983
:101D4000043520462023C4E90255C4E9073500F0D4
:101D5000EFF808B1FFF756FD002226207467114600
:101D6000A66200F091F8262000F0C0F81DB0F0BD8A
:101D70000044004000100240900600206C00024029
:101D8000DFF834D0FFF7CCFD0C480D490D4A002395
:101D900002E0D458C4500433C4188C42F9D30A4A20
:101DA0000A4C002301E013600432A242FBD307F087
:101DB00003FBFFF717FDFEE70000012000000020F5
:101DC0000C02002030C100080C020020B0080020E6
:101DD000FEE7000038B50F4B1A7805460AB9012016
:101DE00038BD4FF47A73B3FBF2F30B4A1068B0FBC3
:101DF000F3F000F089F804460028F0D10F2DEED85A
:101E0000024629464FF0FF3000F03EF8034B2046D3
:101E10001D60E5E73C000020380000204000002065
:101E200010B5032000F01EF80020FFF7D3FF044692
:101E300018B9FFF7E9FC204610BD0124FBE70000BC
:101E4000034A044B11681B780B441360704700BFB2
:101E5000600700203C000020014B1868704700BF5D
:101E6000600700200749CA6822F4E06203021204F6
:101E700003F4E063120C134343F0BF6343F40033F5
:101E8000CB60704700ED00E0164B30B5DC68C4F362
:101E90000224C4F10703251D042B28BF0423062DAB
:101EA0004FF0FF358CBF033C002405FA03F321EA11
:101EB0000303A54022EA0502A340002843EA0203E7
:101EC000ACBF00F16040084A4FEA0313B8BF00F00E
:101ED0000F00DBB2AABF00F56140135480F8003355
:101EE00030BD00BF00ED00E014ED00E0002807DB8E
:101EF000044A4109012300F01F00834042F82130C9
:101F0000704700BF00E100E00138B0F1807F0BD2E4
:101F10004FF0E023054A5861F02182F82310002099
:101F2000072298611A6170470120704700ED00E0B8
:101F3000F0B50346002854D004682B4A94424FF071
:101F400014013CD8294A2A482244B2FBF1F29200FB
:101F5000022183F82510D3E902611F692568314306
:101F600039435F6939439F693943DF6939431F6AE0
:101F70006FF30E1539432943B6F5804FC3E91002BC
:101F8000216014D05C6802F01C020F219140944043
:101F9000174A90426FEA010118D1D0F8A8200A40F0
:101FA000C0F8A820D0F8A8202243C0F8A82000201C
:101FB0000122D86383F8240083F82520F0BD0D4A60
:101FC0000D482244B2FBF1F29200C1E7D2F8A80416
:101FD0000140C2F8A814D2F8A8142143C2F8A814EA
:101FE000E5E70120EAE700BF07040240F8FFFDBF74
:101FF00000000240F8FBFDBF00040240F0B590F87D
:102000002440012C36D0012480F8244090F825404B
:10201000012CE5B24FF000042AD1022680F8256099
:10202000C4630468266826F001062660D0E91067BC
:1020300007F01C07BD40756063608368102B036B5D
:102040000BBFA260A160E160E2604BB1236843F086
:102050000E032360236843F0010323600020F0BDDA
:10206000236823F004032360236843F00A03F0E7A6
:1020700080F824400220F2E790F82520022A034647
:1020800006D00422C2630120002283F82420704776
:102090000268116821F00E011160116821F0010140
:1020A0001160D0E91002012102F01C0201FA02F2D3
:1020B000426083F825100020E6E710B590F825204F
:1020C000022A03D00422C263012010BD0268836B80
:1020D000116821F00E011160116821F001011160F9
:1020E000D0E91042012102F01C0201FA02F2626002
:1020F000002280F8251080F8242003B198470020A2
:10210000E3E7016C426C036870B402F01C020E68D5
:102110001D680424944034420ED015F0040F0BD0F7
:102120001A6892065EBF1A6822F004021A60036BF6
:102130004C6073B370BC184702249440344212D0F0
:1021400015F0020F0FD01A68950606D41A6822F00F
:102150000A021A60012380F8253000234C6080F8C1
:102160002430C36AE5E708249440344211D02C0798
:102170000FD51C6824F00E041C60012303FA02F240
:102180004A60C36380F82530002380F82430436B15
:10219000CFE770BC704700002DE9F74FDFF864917E
:1021A000564C00230A6832FA03F502D103B0BDE8A9
:1021B000F08F012505FA03F818EA020200F0988072
:1021C0004E68032706F003054FEA430E07FA0EFC9C
:1021D0006F1E012F6FEA0C0C34D8876807EA0C0ACF
:1021E000CF6807FA0EF747EA0A078760476827EAC9
:1021F0000808C6F300179F4047EA08074760C7680A
:1022000007EA0C088F6807FA0EF747EA0807022D5D
:10221000C76019D14FEAD30800EB880803F0070A1A
:10222000D8F820704FEA8A0A4FF00F0B0BFA0AFB1E
:1022300027EA0B0B0F6907FA0AF747EA0B07C8F8FA
:10224000207001E0032DDAD1076805FA0EF507EAE0
:102250000C073D4316F4403F056049D0D9F8605063
:1022600045F00105C9F86050D9F8605023F0030724
:1022700007F1804705F0010507F58037019503F068
:10228000030C019DBD684FEA8C0C4FF00F0E0EFA47
:102290000CFEB0F1904F25EA0E0E2BD0184DA8423F
:1022A0002AD005F58065A84214BF0725022505FA46
:1022B0000CF545EA0E05BD60A568D74316F4801FEE
:1022C0000CBF3D401543A560E56816F4001F0CBF28
:1022D0003D401543E560656816F4003F0CBF3D4086
:1022E000154365602568F60354BF3D4015432560DE
:1022F000013357E70025DAE70125D8E7000401405C
:1023000000040048001002400369194214BF012074
:10231000002070470AB181617047816270470000F8
:10232000024A136843F480731360704700700040E2
:10233000024B186800F4C060704700BF0070004096
:10234000174A1368B0F5007F03F4C0631BD1B3F5DF
:10235000007F1BD0136823F4C06343F40073136041
:10236000104B1B6832214B430F49B3FBF1F3013390
:102370005169490500D523B953695B0506D503208A
:102380007047013BF4E7B3F5806F01D1002070473F
:10239000136823F4C06343F480631360F6E700BF5F
:1023A000007000403800002040420F0037B51E4D3D
:1023B000AB6DDA00044618D5FFF7BAFFB0F5007F21
:1023C00023D1802C29D9A02C8CBF022401241749A9
:1023D0000A6822F0070222430A60086800F007003A
:1023E000001B18BF012003B030BDAB6D43F080531C
:1023F000AB65AB6D03F080530193019BFFF798FF32
:10240000AB6D23F08053AB65D8E7802C07D808D09C
:10241000A4F170035C425C41D9E70024D7E70324B0
:10242000D5E70224D3E700BF00100240002002409D
:10243000204B9A68D96812F00C0205D00C2A2CD1D6
:1024400001F0030101292FD119681B48090755BF65
:10245000D3F894101968C1F30321C1F3031150F8A4
:10246000210032B3DA6802F00302022A1ED01349B7
:10247000032A08BF0846D968DA68C2F30622424335
:10248000D868C0F34160C1F302110130013140004E
:10249000B2FBF1F2B2FBF0F07047042A08D0082A30
:1024A000064818BF002070470020DBE70448E2E739
:1024B000034870470010024000BC000800127A0078
:1024C0000024F4002DE9F7430546002860D0954C20
:1024D0000368A668E768DB0606F00C0607F003074A
:1024E00076D51EB10C2E55D1012F53D123689807F4
:1024F00002D5AB69002B4BD02368286A190756BF59
:10250000D4F8943023681B0903F0F003984229D9CA
:10251000FFF74CFF00283BD1236843F008032360FA
:1025200023682A6A23F0F003134323606368EA698F
:1025300023F47F4343EA02236360FFF779FFA36834
:10254000794AC3F30313D35C03F01F03D840774BDE
:102550001860774B1868FFF73DFC002838D003B0AF
:10256000BDE8F083236843F008032360236823F069
:10257000F003034323606368EA6923F47F4343EA7B
:1025800002236360002ED8D1FFF710FF0028D4D0BB
:102590000120E4E7AB69002B3AD0236843F0010344
:1025A0002360FFF759FC804623689A0728D52368E3
:1025B00043F00803236023682A6A23F0F0031343DF
:1025C00023606368EA6923F47F4343EA022363607C
:1025D0002B68D8072DD42B6899076BD42B68180764
:1025E00000F1A8802B68590700F1CE802B6898066F
:1025F00000F13781AB6A002B40F05D810020AEE72F
:10260000FFF72AFCA0EB08000228CDD90320A6E79B
:10261000236823F001032360FFF71EFC8046236834
:102620009B07D5D5FFF718FCA0EB08000228F6D9C8
:10263000ECE7082E03D00C2E08D1032F06D1236817
:102640009A03C8D56B68002BC5D1A1E76B68B3F5B9
:10265000803F10D1236843F480332360FFF7FCFBF5
:10266000804623689B03B6D4FFF7F6FBA0EB080077
:102670006428F6D9CAE7B3F5A02F04D1236843F440
:1026800080232360E6E7226822F4803222602268F9
:1026900022F480222260002BE0D1FFF7DDFB804690
:1026A0002368980397D5FFF7D7FBA0EB08006428B1
:1026B000F6D9ABE7042E03D00C2E10D1022F0ED189
:1026C0002368590503D5EB68002B3FF461AF6368BD
:1026D0002A6923F0F85343EA026363607EE7EB68FC
:1026E0007BB1236843F480732360FFF7B5FB074693
:1026F00023685A05EBD4FFF7AFFBC01B0228F7D9BC
:1027000084E7236823F480732360FFF7A5FB074663
:1027100023685B057FF562AFFFF79EFBC01B0228B5
:10272000F6D973E70010024038BC000838000020DA
:10273000400000206B699BB1D4F8943043F0010352
:10274000C4F89430FFF788FB0746D4F894309A0712
:102750003FF548AFFFF780FBC01B0228F5D955E7CE
:10276000D4F8943023F00103C4F89430FFF774FBDD
:102770000746D4F894309B077FF534AFFFF76CFB26
:10278000C01B0228F5D941E7A36DDF0029D4A36D52
:1027900043F08053A365A36D03F080530193019B25
:1027A0004FF00108954F3B68D8051DD5AB68012B4C
:1027B0002BD1D4F8903043F00103C4F89030FFF7E8
:1027C0004BFB41F288390746D4F890309A0742D53E
:1027D000B8F1000F3FF40AAFA36D23F08053A36557
:1027E00004E74FF00008DDE73B6843F480733B608B
:1027F000FFF732FB81463B68D905D7D4FFF72CFBA6
:10280000A0EB09000228F6D900E7052B06D1D4F881
:10281000903043F00403C4F89030CAE7D4F8902015
:1028200022F00102C4F89020D4F8902022F0040293
:10283000C4F89020002BC2D1FFF70EFB41F288397B
:102840000746D4F890309B07C2D5FFF705FBC01BA5
:102850004845F6D9DAE6FFF7FFFAC01B4845B3D979
:10286000D4E66B6A9BB1D4F8983043F00103C4F806
:102870009830FFF7F1FA0746D4F8983099073FF5FA
:10288000B9AEFFF7E9FAC01B0228F5D9BEE6D4F8C5
:10289000983023F00103C4F89830FFF7DDFA0746BB
:1028A000D4F898309A077FF5A5AEFFF7D5FAC01B8C
:1028B0000228F5D9AAE6022B40F08880E368EA6A8C
:1028C00003F00301914222D1296B03F07002013918
:1028D000B2EB011F1BD1696B03F4FE42B2EB012F77
:1028E00015D1A96B03F07842B2EBC16F0FD1EA6B3F
:1028F000520803F4C001013AB1EB425F07D12A6CE0
:10290000520803F0C063013AB3EB426F45D00C2E7E
:102910003FF43EAE23685B013FF53AAE236823F0F7
:1029200080732360FFF798FA064623689F012ED430
:10293000E268334B1340EA6A13436A6B43EA0223AB
:10294000AA6B43EAC2632A6B013A43EA0213EA6BB9
:102950005208013A43EA42532A6C5208013A43EAC8
:102960004263E360236843F080732360E36843F0CD
:102970008073E360FFF770FA0546236898013FF51E
:102980003DAEFFF769FA401B0228F6D93EE6FFF795
:1029900063FA801B0228C8D938E6236899013FF5FD
:1029A0002DAE236843F080732360E36843F08073A7
:1029B000E360FFF751FA054623689A013FF51EAE22
:1029C000FFF74AFA401B0228F6D91FE60C2E3FF407
:1029D000DFAD236823F080732360FFF73DFA0546DF
:1029E00023689B0104D4E268064B1340E36005E6CC
:1029F000FFF732FA401B0228F2D907E600700040C8
:102A00008C809D01FCFFEEFE2DE9F0410D46044651
:102A100010B90120BDE8F0814B4A136803F00703A9
:102A20008B422CD32168880734D4C9073FD421684E
:102A30008A0768D4444A136803F00703AB426FD88F
:102A400011F0040F414D77D10B0706D5AB68226911
:102A500023F4605343EAC203AB60FFF7E9FCAB68C1
:102A60003B4AC3F30313BDE8F041D35C03F01F03FB
:102A7000D840384B1860384B1868FFF7ABB913686B
:102A800023F007030B431360136803F007038B4223
:102A9000BFD1C7E72D4AA068936803F0F0039842BE
:102AA00081BF936823F0F00303439360BDE762683E
:102AB000264E032A33681AD113F0007FA9D0B368D9
:102AC00023F003031343B360FFF7C6F941F28838DC
:102AD0000746B368626803F00C03B3EB820FA6D01D
:102AE000FFF7BAF9C01B4045F3D9032092E7022A49
:102AF00002D113F4003FE1E712B913F0020FDDE752
:102B000013F4806FDAE7114AA068936803F0F003CA
:102B100098423FBF936823F0F0030343936089E733
:102B2000136823F007032B431360136803F00703B4
:102B3000AB427FF46EAF83E7AB68E26823F4E063F7
:102B40001343AB6080E700BF00200240001002404A
:102B500038BC00083800002040000020054B064A21
:102B60009B68C3F30223D35C044A106803F01F037D
:102B7000D84070470010024030BC000838000020E8
:102B8000054B064A9B68C3F3C223D35C044A106812
:102B900003F01F03D84070470010024030BC00080B
:102BA000380000200F2303600B4B9A6802F00302E9
:102BB00042609A6802F0F00282609A6802F4E06271
:102BC000C2609B68DB0803F4E0630361034B1B688E
:102BD00003F007030B607047001002400020024022
:102BE000F8B5414CE3689B0705460E46006828D0BF
:102BF000E36803F0030383423AD1002B38D0E36843
:102C00006A68C3F302130133934231D1236823F07E
:102C100080632360FFF720F9074623681A0130D448
:102C2000AA681202A6B3012E23694BD1296923F4A5
:102C3000C003490823F4FE430139134343EA4153D7
:102C40002FE0022810D0032814D0012810D12368C7
:102C50009F071CD5E3686A6823F07303013A0343B6
:102C600043EA0213E360D1E7236813F4806FF1D1E4
:102C700001200CE023689903ECD4236813F4802F1F
:102C8000F5E7FFF7E9F8C01B0228C6D90320F8BD15
:102C90002169EB6842EAC36321F0784222F4FE42E4
:102CA00013432361236843F080632360FFF7D4F864
:102CB000064623681B0110D52369AA6913432361C3
:102CC0000020E4E7696923F0C063490823F4FE4368
:102CD0000139134343EA4163E3E7FFF7BDF8801B83
:102CE0000228E6D9D2E700BF0010024003682DE9B0
:102CF000F7431E05044640F1E780C16BB1F5000FB4
:102D000000F0D480B1F5400F00F0D580002900F02C
:102D1000DD80012623689D0333D59A4DAB6DD80025
:102D200000F1DC80AB6D43F08053AB65AB6D03F01D
:102D300080530193019B0127DFF84C82D8F80030C3
:102D400043F48073C8F80030FFF786F88146D8F85E
:102D50000030D90540F1C48076B9D5F89030226DA5
:102D600013F4407340F0C580D5F89030226D23F401
:102D700040731343C5F890301FB1AB6D23F08053FF
:102D8000AB652368DF0708D57E49206AD1F8882023
:102D900022F003020243C1F888209D0708D5794933
:102DA000606AD1F8882022F00C020243C1F8882022
:102DB000980608D57349A06AD1F8882022F44062A9
:102DC0000243C1F88820990508D56E49606BD1F897
:102DD000882022F440220243C1F888205A0508D5F1
:102DE0006849A06BD1F8882022F440120243C1F850
:102DF00088205F0608D56349E06AD1F8882022F46C
:102E000040520243C1F88820DD0508D55D49206B9A
:102E1000D1F8882022F440320243C1F88820980477
:102E200010D5584A216CD2F8883023F040630B4308
:102E3000B1F1006FC2F8883040F08480D36843F469
:102E40008013D3603746236859030FD54D4A616C10
:102E5000D2F8883023F040630B43B1F1006FC2F821
:102E600088307CD1D36843F48013D3603D46236817
:102E70005A040BD54349A26CD1F8883023F0405353
:102E80001343B2F1805FC1F8883074D028462368BC
:102E90001B0408D53B4AE16CD2F8883023F080430C
:102EA0000B43C2F8883003B0BDE8F083354AD368DD
:102EB00043F48033D360334AE16BD2F8883023F493
:102EC00040030B43C2F88830002623E70430FFF7A5
:102ED00087FE064600287FF41DAFECE700272BE7AE
:102EE000FEF7BAFFA0EB090002287FF630AF0326F9
:102EF00042E793423FF438AFD5F89020D5F89030B0
:102F000043F48033C5F89030D5F8903022F4407106
:102F100023F48033D207C5F89030C5F890107FF5C0
:102F200023AFFEF799FF41F288398046D5F89030FB
:102F30009B073FF519AFFEF78FFFA0EB0800484550
:102F4000F4D9D4E7B1F1806F7FF47CAF0121201D6B
:102F5000FFF746FE074600283FF474AF73E7B1F170
:102F6000806F83D10121201DFFF73AFE054600281E
:102F70003FF47CAF7BE70221201DFFF731FE0028E4
:102F800084D084E70010024000700040024A1368B9
:102F900043F004031360704700100240036A026AA2
:102FA00022F0010270B50262426884690D6824F45F
:102FB000803424F073042C438D6823F002032B43E8
:102FC0000E4DA84207D005F5A055A84203D005F53F
:102FD0008065A8420BD1CD6823F008032B43D1E9CB
:102FE000055622F44072354323F004032A4342601D
:102FF0004A6884614263036270BD00BF002C0140D7
:10300000036A026A22F4807270B502624268C4697F
:103010000D6824F4803424F073042C438D6823F469
:10302000007343EA05230F4DA8420ED1CD6823F467
:10303000006343EA052323F48063D1E9055622F4B3
:103040004052354342EA051206E0074DA842F4D04B
:1030500005F58065A842F0D042604A68C461C26349
:10306000036270BD002C014000400140026A036A07
:1030700023F4805330B503624468C3690D6823F0BC
:10308000807323F4E64343EA05238D6822F400525B
:1030900042EA05320A4DA84207D005F5A055A842DC
:1030A00003D005F58065A84204D14D6924F480441D
:1030B00044EA85144460C3614B680364026230BD16
:1030C000002C0140026A036A23F4803330B50362A6
:1030D0004468436D0D6823F4803323F070032B4361
:1030E0008D6822F4003242EA05420B4DA84207D017
:1030F00005F5A055A84203D005F58065A84204D186
:103100004D6924F4803444EA0524446043654B68E7
:103110008365026230BD00BF002C0140026A036A71
:1031200023F4801330B503624468436D0D6823F0C7
:10313000807323F4E04343EA05238D6822F40012F0
:1031400042EA05520A4DA84207D005F5A055A8420B
:1031500003D005F58065A84204D14D6924F480248C
:1031600044EA8524446043654B68C365026230BD10
:10317000002C014090F83D30012B1FD1022380F834
:103180003D300368DA6842F00102DA600C4A93428B
:1031900006D0B3F1804F03D002F5A052934207D17D
:1031A0009968084A0A40062A06D0B2F5803F03D043
:1031B0001A6842F001021A6000207047012070472F
:1031C000002C0140070001000368DA6822F00102C8
:1031D000DA60196A41F21112114208D1196A40F2FB
:1031E0004442114202BF1A6822F001021A60012310
:1031F00080F83D3000207047704770477047704737
:103200007047036870B5DD681E69B20704460DD5C6
:10321000A9070BD56FF002021A61012202779B69A0
:103220009A0775D0FFF7EAFF00232377730710D5BD
:1032300068070ED523686FF004021A610222227714
:103240009B6913F4407F204668D0FFF7D7FF002327
:10325000237731070FD52A070DD523686FF00802B1
:103260001A6104222277DB699B0720465CD0FFF7B6
:10327000C5FF00232377F10610D5EA060ED5236893
:103280006FF010021A6108222277DB6913F4407F85
:1032900020464FD0FFF7B2FF00232377F30708D56E
:1032A000E80706D523686FF001021A612046FFF790
:1032B000A3FF16F4025F08D0290606D523686FF431
:1032C00002521A61204600F064FBF20508D52B0675
:1032D00006D523686FF480721A61204600F05AFB0D
:1032E000700608D5690606D523686FF040021A619A
:1032F0002046FFF785FFB20622D5AB0620D523680E
:103300006FF0200220461A61BDE8704000F040BB1B
:10331000FFF773FF2046FFF772FF85E7FFF76DFFAA
:103320002046FFF76CFF92E7FFF767FF2046FFF7A5
:1033300066FF9EE7FFF761FF2046FFF760FFABE700
:1033400070BD00001B4A036890420BD0B0F1804F63
:1033500008D002F5A052904209D1CA6823F4407304
:10336000134307E04A6823F070031343F5E7124A5A
:103370009042F2D04A6923F08003134303608B68C4
:10338000C3620B6883620B4B984207D003F5A053CE
:10339000984203D003F58063984201D10B6903631F
:1033A000012343610369DB0742BF036923F0010383
:1033B00003617047002C01400044014010B50446F1
:1033C00050B390F83D3003F0FF021BB980F83C2069
:1033D000FEF7FAFA0223206884F83D30211DFFF73A
:1033E000B1FF012384F84830002084F83E3084F88F
:1033F0003F3084F8403084F8413084F8423084F81B
:10340000433084F8443084F8453084F8463084F8FA
:10341000473084F83D3010BD0120FCE710B504466C
:1034200050B390F83D3003F0FF021BB980F83C2008
:10343000FEF7B6FA0223206884F83D30211DFFF71D
:1034400081FF012384F84830002084F83E3084F85E
:103450003F3084F8403084F8413084F8423084F8BA
:10346000433084F8443084F8453084F8463084F89A
:10347000473084F83D3010BD0120FCE7036A026A42
:1034800022F0100270B50262426884690D6824F06F
:10349000807424F4E64444EA05248D6823F0200374
:1034A00043EA05130F4DA8420ED1CD6823F08003E7
:1034B00043EA051323F04003D1E9055622F44062A4
:1034C000354342EA850206E0074DA842F4D005F5EF
:1034D0008065A842F0D042604A68846182630362DA
:1034E00070BD00BF002C01400040014038B590F88D
:1034F0003C30012B044673D001200C2A84F83C0098
:103500004ED008D8042A2BD0082A39D0BAB10023CB
:1035100084F83C3038BD102A52D0142AF7D12068E4
:10352000FFF7FCFD436D0A6943F400634365436D97
:1035300023F480634365436D43EA02234EE0206831
:10354000FFF72CFD83690A6943F0080383618369EF
:1035500023F0040383618369134383610020D6E76A
:103560002068FFF78BFF83690A6943F40063836176
:10357000836923F480638361836943EA0223ECE770
:103580002068FFF73DFDC3690A6943F00803C36182
:10359000C36923F00403C361C3691343C361DDE757
:1035A0002068FFF763FDC3690A6943F40063C361E0
:1035B000C36923F48063C361C36943EA0223EDE76F
:1035C0002068FFF77FFD436D0A6943F008034365F8
:1035D000436D23F004034365436D13434365BDE727
:1035E000022097E710B584680A4324F47F4442EA36
:1035F00003222243826010BD00684B68826822F07B
:1036000070021A4310B522F480320C6822F00702CF
:103610002243502B82602CD010D8402B19D04BD88D
:10362000202B14D005D833F0100314BF0120002044
:1036300010BDB3F1300018BF0120F9E7602B28D08E
:10364000702B39D10B69D1E90221FFF7CBFF0020A4
:10365000EEE7052C30D0026A036A096923F0010302
:103660000362836923F0F00343EA0113836102627A
:10367000EDE78A680C69016A036A23F001030362BB
:10368000836921F00A0123F0F00343EA04130A439B
:10369000ECE7036A026A8C68096922F01002026290
:1036A000826923F0A00322F4704242EA013243EA25
:1036B000041382610362CAE70120B9E738B590F8C4
:1036C0003C30012B04464FF002031CD0012580F84A
:1036D0003C5080F83D30FFF78FFF30B1002384F875
:1036E0003D5084F83C30284638BD2368DA6822F023
:1036F0004002DA60DA6822F48042DA6084F83D50F1
:1037000084F83C00F0E71846EEE7036A10B501F0D4
:103710001F0101248C4023EA04030362036A8A40E8
:103720001A43026210BD0000082908B518D005D858
:1037300059B1042911D090F8433008E00C2912D077
:103740001029F8D190F8423001E090F83E30013B6A
:1037500018BF012353B101203EE090F83F30F6E757
:1037600090F84030F3E790F84130F0E708294FF047
:10377000020335D006D861B104292ED0022380F887
:10378000433008E00C292ED01029F7D180F84230C0
:1037900001E080F83E3000680122FFF7B6FF174ACB
:1037A000904206D0164B984203D003F580639842AE
:1037B00020D1436C904243F40043436416D18268A5
:1037C000104B1340062B06D0B3F5803F03D003689F
:1037D00043F001030360002008BD80F83F30DAE7C2
:1037E00080F84030D7E780F84130D4E7044B984266
:1037F000EDD1E4E7B0F1804FFAE700BF002C0140C3
:103800000040014007000100FFF78EBF38B50022DD
:10381000044600680D46FFF778FF234B984207D017
:1038200003F5A053984203D003F5806398420DD16D
:10383000026A41F211131A4208D1026A40F244436B
:103840001A4202BF436C23F400434364026A41F20C
:1038500011131A4208D1026A40F244431A4202BFCD
:10386000036823F001030360082D4FF0010315D016
:1038700006D865B1042D0ED0012384F8433008E04A
:103880000C2D0ED0102DF7D184F8423001E084F8D1
:103890003E30002038BD84F83F30FAE784F84030ED
:1038A000F7E784F84130F4E7002C0140FFF7AEBFA2
:1038B00070B590F83C30012B04464FF0020023D045
:1038C0002268124D84F83D0053689068AA4202BFF6
:1038D0004E6823F4700333430E6823F070033343C0
:1038E000AA42536005D0B2F1804F02D0084B9A42F1
:1038F00004D1896820F080030B43936001230020EA
:1039000084F83D3084F83C0070BD00BF002C0140BD
:103910000040014010B590F83C30012B024633D0F6
:10392000CB688868194C23F440730343486823F438
:1039300080630343086823F400630343086923F4A6
:1039400080530343486923F400530343886A23F4F4
:1039500080430343886923F4702343EA00431068DB
:10396000A0420CD14C6A23F4700343EA0453CC699F
:10397000096A23F08073234323F000730B434364ED
:10398000002082F83C0010BD0220FCE7002C014022
:10399000704770477047026852E8003F23F4907305
:1039A00042E8003102680029F5D102F1080353E82A
:1039B000003F23F0010302F1080C4CE8003100291C
:1039C000F3D1036E012B07D152E8003F23F010031F
:1039D00042E800310029F7D12023C0F880300023CD
:1039E000036683667047704770477047806A036854
:1039F000C26FD0F8801010B59C6824060ED5212A1D
:103A00000CD10022A0F8522053E8002F22F0C0026F
:103A100043E80024002CF7D12022C2679B685B0694
:103A200006D5222904D10023A0F85A30FFF7B3FFAE
:103A3000D0F8843043F01003C0F88430FDF790FDD7
:103A400010BD08B5806A0023A0F85A30A0F85230A3
:103A5000FDF786FD08BD70470368DA69196870B51F
:103A600040F60F0632429D6804460BD1960640F19F
:103A700088808E0640F18580836E002B7BD0BDE868
:103A8000704018479C4E05F001000E40064378D068
:103A9000D50709D5CE0507D501251D62D4F8845078
:103AA00045F00105C4F88450950708D538B10225C2
:103AB0001D62D4F8845045F00405C4F884505607BC
:103AC00008D538B104251D62D4F8845045F00205AC
:103AD000C4F8845015070BD501F02005054307D025
:103AE00008201862D4F8840040F00800C4F884006C
:103AF00016050AD54D0108D54FF400601862D4F8B8
:103B0000843043F02003C4F88430D4F88430002B90
:103B100031D0900605D58A0603D5A36E0BB1204699
:103B200098472668D4F88420B36802F0280203F08E
:103B3000400353EA020520461ED0FFF72CFFB3686E
:103B40005B0615D5226802F1080353E8003F23F015
:103B50004003083242E800310029F3D1606F38B1E8
:103B6000664B8363FEF7A9FA28B1606F836B86E723
:103B70002046FDF7F5FC70BDFDF7F2FCC4F884505B
:103B8000F9E7206E012840F08B80D60640F188804E
:103B9000C80640F1858010221A629968B4F858204E
:103BA00049064FD5616F0868416889B2002941D044
:103BB00091423FD2A4F85A10026892062ED453E8DC
:103BC000002F22F4807243E800210029F7D103F18D
:103BD000080252E8002F22F0010203F1080040E839
:103BE00000210029F3D103F1080252E8002F22F04E
:103BF000400203F1080040E800210029F3D120220F
:103C0000C4F88020216653E8002F22F0100243E818
:103C100000210029F7D1606FFEF72EFA02236366B8
:103C2000B4F85A30B4F85810C91A89B22046FFF7D0
:103C300012FFA0E791429ED103689B069BD5022309
:103C40006366F3E7B4F85A10B4F85A0080B289B248
:103C5000002890D0511A89B200298CD053E8002F47
:103C600022F4907243E800200028F7D103F1080203
:103C700052E8002F22F0010203F1080545E8002078
:103C80000028F3D12022C4F88020A066206653E8E3
:103C9000002F22F0100243E800200028F7D1CEE7E1
:103CA000D60209D5680207D54FF4801220461A6261
:103CB000BDE8704000F0E6BA160607D50D0605D53A
:103CC000E36E002B3FF457AF2046D8E650067FF551
:103CD00052AF4A067FF54FAF53E8002F22F0400263
:103CE00043E800210029F7D12023E367E16620465D
:103CF000FFF779FE3FE700BF20010004433A0008C8
:103D0000806A08B501234366036E012B05D1B0F824
:103D100058104908FFF79FFE08BDFFF766FEFBE756
:103D200008B50346806A1B681B6813F0200331D175
:103D3000A0F85A30026852E8003F23F4807342E84A
:103D4000003103680029F5D103F1080252E8002F81
:103D500022F0010203F1080C4CE800210029F3D104
:103D600003F1080252E8002F22F0400203F1080C90
:103D70004CE800210029F3D12022C0F88020026EF7
:103D8000012A07D153E8002F22F0100243E8002156
:103D90000029F7D100234366036E012B04D1B0F84C
:103DA0005810FFF758FE08BDFFF71EFEFBE70000A6
:103DB00038B50446C0692169A26823680A4361696D
:103DC0001D680A435E49024329400A431A605A6843
:103DD000E16822F440520A435A605A4AA169934268
:103DE0001CBF226A11439A6822F430620A439A6027
:103DF000554A934214D1554BD3F8883003F003034E
:103E0000022B00F09480032B00F08B80012B00F03C
:103E10008280B0F5004F00F08F80FEF7B1FE11E018
:103E20004B4A934221D1494BD3F8883003F00C031D
:103E3000082B7CD015D8002B6DD1B0F5004F4ED09B
:103E4000FEF78CFE08B3626800EB5203B3FBF2F39B
:103E50004FF6EF72A3F11001914204D82268D360AB
:103E600013E00C2B5DD0012010E0364A9342FAD1CA
:103E7000364BD3F8883003F44063B3F5006F12D0AB
:103E800008D86BB9FEF76AFE70B900200023C4E9B8
:103E90001A3338BDB3F5406FE5D14FF4004003E06D
:103EA000FEF7C6FAF0E72B48626802EB4203834252
:103EB000D9D8B0EB023FD6D8510800238C464FF436
:103EC00080751946E0FB05C16046FCF74FFE224BAA
:103ED000A0F540729A42C6D82368D860D5E7FEF7AD
:103EE0003DFE0028D1D06268530803EB4003B3FBCA
:103EF000F2F34FF6EF72A3F110019142B3D823F021
:103F00000F02216892B2C3F342031343CB60BCE7B4
:103F1000FEF78EFA96E7B0F5004FF9D1FEF788FA72
:103F2000DFE7B0F5004FDED04FF400408BE7B0F58F
:103F3000004F084887D1D6E7FEF722FED1E700BF41
:103F4000F369FFEF0080004000380140001002409C
:103F5000004400400024F400FFFC0F00436A1A07ED
:103F600010B506D50168446B4A6822F4004222432A
:103F70004A60DC0706D50168846A4A6822F4003288
:103F800022434A60990706D50168C46A4A6822F448
:103F9000803222434A605A0706D50168046B4A689A
:103FA00022F4802222434A60DC0606D50168846B35
:103FB0008A6822F4805222438A60990606D50168F5
:103FC000C46B8A6822F4005222438A605A060FD5D5
:103FD0000168046C4A6822F480122243B4F5801F01
:103FE0004A6005D14A68446C22F4C00222434A6008
:103FF0001B0606D50268816C536823F400230B432B
:10400000536010BD2DE9F843DDF8209004460D46BD
:10401000174698462268D36935EA03030CBF01238B
:104020000023BB4201D0002022E0B9F1FF3FF2D0D3
:10403000FDF712FFA0EB0800484529D8B9F1000FA1
:1040400026D021680B685A07E4D5802DE2D0402D98
:10405000E0D0CE6916F008060CD0082520460D6287
:10406000FFF799FC0023C4F8845084F878300120CD
:10407000BDE8F883CB691B05CCD54FF400630B6218
:104080002046FFF788FC2023C4F8843084F8786049
:104090000320EDE773B504460026C0F88460FDF701
:1040A000DBFE23681B681A0705461BD56FF07E43AD
:1040B0000093324603464FF400112046FFF7A2FF5B
:1040C00080B1226852E8003F23F0800342E80031CB
:1040D0000029F6D12023E3670320002384F87830F9
:1040E00002B070BD23681B685B0724D56FF07E4368
:1040F000009300222B464FF480012046FFF782FFF9
:10410000C8B1226852E8003F23F4907342E80031BE
:1041100022680029F5D102F1080353E8003F23F09B
:10412000010302F1080040E800310029F3D1202307
:10413000C4F88030D0E720230020E367C4F8803043
:1041400020666066C9E710B5044640B3C36F1BB96B
:1041500080F87830FDF7A6FD22682423E367136812
:1041600023F001031360636A13B12046FFF7F6FEE4
:104170002046FFF71DFE012811D023685A6822F45B
:1041800090425A609A6822F02A029A601A6842F0B5
:10419000010220461A60BDE81040FFF77BBF0120F6
:1041A00010BD000070B513460446A0F85820002248
:1041B0004165C0F884202220C4F88000606F256823
:1041C000A0B11C4EC6621C4E06631C4EC0E90D62B7
:1041D0000A4605F12401FDF711FF38B11023C4F898
:1041E00084302023C4F88030012070BD2269236808
:1041F0003AB153E8002F42F4807243E800210029CD
:10420000F7D103F1080252E8002F42F0010203F156
:10421000080040E800210029F3D103F1080252E828
:10422000002F42F0400203F1080141E8002000287D
:10423000F3D1DAE7213D0008013D0008ED3900081F
:10424000D0F88030202B30B415D1B9B1B2B10023F1
:10425000046803660A4B9C420AD063681B0207D5B8
:1042600054E8003F43F0806344E80035002DF7D167
:1042700030BCFFF797BF022030BC70470120FBE73E
:1042800000800040704780B483B000AF78600B4678
:10429000FB70FB78092B08D87B68002B05D0FA78D7
:1042A0007B68243233F8123000E0002318460C37C4
:1042B000BD465DF8047B704780B582B000AF786082
:1042C0000B46FB7013463B807B68002B11D07B684C
:1042D000DB6A002B0DD07B68DB6A9B68002B08D063
:1042E0007B68DB6A9B683A88F97878689847034668
:1042F00000E0002318460837BD4680BD90B58BB05E
:1043000000AF78600B46FB7013463B80FB78092BAF
:1043100000F206817B68002B00F00281FB78844A62
:1043200012F8133087F82130FB78814A5B00134480
:104330005B78804907F10802DB000B4493E8030037
:1043400082E80300FA787B68243233F81230FB836A
:10435000FA8B3B889A4200F0E580FA787B68243239
:10436000398823F8121097F82130062B00F2D380F9
:1043700001A252F823F000BF9543000895430008BE
:104380000B440008294500086F440008294500082F
:10439000294500087B68B3F8483023F04003BB820E
:1043A0007B68B3F84A3023F040037B82BA8A7B8A69
:1043B00013409BB2002B1ED0FB8BDB439AB23B8891
:1043C00013407B837B68B3F8483043F040039AB2D4
:1043D0007B68A3F848207A8B3B8813409BB2002B64
:1043E00000F098807B68B3F848301A46012178685D
:1043F000FFF762FF8EE07B68B3F8483023F040039C
:104400009AB27B68A3F8482084E07B7A0B2B07D014
:104410007B7A19467868FFF736FF0346FB8402E093
:104420004FF6FF73FB843A88FB8C13409BB2002B42
:1044300014BF01230023FB757B7BFB707B7B19463C
:104440007868FFF720FF03463B80FB7D002B04D0FC
:10445000FA893B8813433B805DE0FB891BB2DB4359
:104460001AB2B7F9003013401BB23B8053E03B7ADD
:10447000FB70FB7A0B2B11D13B7B0B2B0ED1FB8BF3
:10448000DB439AB23B8813409CB23B7A194678686A
:10449000FFF7F9FE034623433B803CE00023BB8447
:1044A00000237B84FB7A0B2B06D0FB7A19467868B5
:1044B000FFF7E9FE0346BB843B7B0B2B06D03B7B1F
:1044C00019467868FFF7DFFE03467B84FA8B3B884A
:1044D0005340BB83BA8B3B8813407B83B7F91A30B8
:1044E000DB431AB2B7F91C3013401BB23B837A8B03
:1044F000BB8C13409AB2398B7B8C0B409BB213431D
:104500009CB23B7A19467868FFF7BDFE0346234309
:104510003B8000E000BF7B7B0B2B7FF4FFAE04E011
:1045200000BF02E000BF00E000BF2C37BD4690BDD9
:1045300048BC00085CBC000880B582B000AF786061
:104540000B46FB7013463B80FB7819467868FFF7F3
:104550009AFE03461A463B8813439AB2FB781946E3
:104560007868FFF7CBFE00BF0837BD4680BD80B539
:1045700082B000AF78600B46FB7013463B80FB783F
:1045800019467868FFF77FFE03461AB2B7F9003084
:10459000DB431BB213401BB29AB2FB781946786812
:1045A000FFF7ACFE00BF0837BD4680BD80B584B0C4
:1045B00000AF7860786802F04FF90023FB6010E0EC
:1045C0000C4AFB6812F83330FB72FB7A002B05D0E3
:1045D000FB7A002219467868FFF790FEFB680133EA
:1045E000FB60FB68032BEBDD012318461037BD464B
:1045F00080BD00BF5CBC000880B584B000AF7860AF
:1046000007F10C0301221946786800F0FFFF03460A
:10461000002B08D0FB689BB21A4603217868FFF78D
:104620006DFE012301E04FF0FF3318461037BD4601
:1046300080BD80B582B000AF786003217868FFF755
:1046400022FE03461946786800F061FC01231846F3
:104650000837BD4680BD80B582B000AF78600221CA
:104660007868FFF710FE03461946786800F04FFCA3
:10467000002202217868FFF741FE0123184608371F
:10468000BD4680BD90B585B000AF78600023FB606B
:1046900025E07A68FB6820339B0013445B68002B9D
:1046A00015D07A68FB6820339B0013445C687A68F5
:1046B000FB6820339B0013445B681846FBF788FDBA
:1046C00003461A462146786800F094FB04E0012274
:1046D0000749786800F08EFBFB680133FB60FB68DC
:1046E000032BD6DD012318461437BD4690BD00BF0D
:1046F000D0B3000880B582B000AF786001220221FB
:104700007868FFF719FF012318460837BD4680BDBA
:1047100080B582B000AF78600121786800F0F7FBC7
:10472000012318460837BD4680BD80B582B000AF72
:1047300078607B68002B0FD07B68DB6A002B0BD086
:104740007B68DB6A1B69002B06D07B68DB6A1B6910
:1047500078689847034600E0012318460837BD46AD
:1047600080BD80B584B000AF786007F10C030122F2
:104770001946786800F04AFF0346002B08D0FB6812
:104780009BB21A4601217868FFF7B8FD012301E0CA
:104790004FF0FF3318461037BD4680BD80B582B05C
:1047A00000AF786001217868FFF76DFD0346194678
:1047B000786800F0ACFB012318460837BD4680BD81
:1047C00080B582B000AF786000217868FFF75BFDAC
:1047D00003461946786800F09AFB0123184608370B
:1047E000BD4680BD80B483B000AF78600123184619
:1047F0000C37BD465DF8047B7047000080B582B081
:1048000000AF786006220449786800F0F3FA0123CB
:1048100018460837BD4680BDD4B3000880B584B0C3
:1048200000AF786007F10C031946786802F024F8AD
:1048300007F10C031946786800F08CFB0123184639
:104840001037BD4680BD80B582B000AF7860786813
:1048500002F030F803461946786800F058FB01234F
:1048600018460837BD4680BD80B584B000AFF860FB
:10487000B9607A607B68002B0BD0BB68002B08D036
:10488000FB68DB6A5B687A68B968F8689847034632
:1048900000E0002318461037BD4680BD80B582B0C9
:1048A00000AF78607B68002B0FD07B68DB6A002B41
:1048B0000BD07B68DB6ADB68002B06D07B68DB6A89
:1048C000DB6878689847034600E0012318460837FC
:1048D000BD4680BD80B582B000AF78607B681B6B41
:1048E000002B06DD012205497868FFF7BDFF03466E
:1048F00000E0002318460837BD4680BDDCB3000841
:1049000080B584B000AF78607B6893F8383083F06E
:104910000103DBB2002B0AD0022207497868FFF7B7
:10492000A3FFF8607868FFF7B9FFFB6800E0002399
:1049300018461037BD4680BDE0B3000880B582B090
:1049400000AF78607B681B6B002B06DD01220549F8
:104950007868FFF789FF034600E000231846083710
:10496000BD4680BDE4B3000880B586B000AF786076
:104970007B681B693B617B681433FB600123FB751B
:104980007B689A6A7B681B6A013B13441B783F2B48
:104990000CBF01230023FB727B6893F8383083F04F
:1049A0000103DBB2002B07D0FB7A002B04D00122DD
:1049B0002E497868FFF758FF7B68002283F839207A
:1049C0007B6800221A637B6800225A637B6800229E
:1049D000C3F894203B695B68002B2AD03B695B6875
:1049E000786898470346012B0FD07B6893F83930DD
:1049F00083F00103DBB2002B04D06FF0C7017868AD
:104A000002F01CF80023FB7513E07B6893F8393043
:104A1000002B02D00023FB750BE07B6893F8383045
:104A2000002B06D0FB7A002B03D07B68002283F892
:104A30003820FB685A68FB681B68F96889680B4472
:104A40009A420ED27B6893F8393083F00103DBB2CF
:104A5000002B06D06FF06B01786801F0EFFF0023A8
:104A6000FB75FB7D18461837BD4680BDE4B30008D2
:104A700080B588B002AFF860B9607A6000237B61CE
:104A80001EE0FB6819687A6913465B0013449B00BB
:104A90000B443B613B6918687A680023019300234B
:104AA00000930023B96801F04CFC0346002B04D0AE
:104AB000FB683A691A6101230EE07B6901337B616F
:104AC000FB6819687A6913465B0013449B000B442A
:104AD0001B68002BD5D1002318461837BD4680BD72
:104AE00080B58CB000AFF860B9607A60012387F8B8
:104AF0002F301A233B750023BB610023FB61FB6849
:104B0000002B01D1002393E0FB6864337B62FB68D8
:104B100000221A63FB68012283F838207A68B9689A
:104B2000786A00F05FFF38627B6A1B78192B08D126
:104B30006FF06401F86801F081FF002387F82F30DF
:104B400063E07B6A9B68002B5FDD7A6A07F11403E0
:104B50001146184601F0BEFD7B6A59687B6A9B6866
:104B60001A46F868FFF784FF0346002B2CD07B6AB7
:104B70001A69FB685A61FB685A69FB689A617B6A2B
:104B80005A69FB68DA617B6A5A68FB689A62FB685B
:104B900000225A627B6A9B681A46FB681A62F868B0
:104BA000FFF7E2FE03461A4697F82F301340002B1A
:104BB00014BF0123002387F82F307A6A07F114030A
:104BC00007CA83E8070020E03B6ABB6202E0BB6AD9
:104BD000013BBB62BB6A002B0DD0BB6A013BBA68CC
:104BE00013441B780D2BF2D0BB6A013BBA68134407
:104BF0001B780A2BEBD0BB6ABA686FF07001F868BB
:104C000001F0A6FE002387F82F303A6A7B689A42AB
:104C100008DA3B6ABA681344BB607A683B6AD31A05
:104C20007B607BE700BFF868FFF76AFE97F82F30DC
:104C300018463037BD4680BD80B584B000AFF860FF
:104C4000B9607A603B6098220021F86804F021FB8B
:104C5000FB68BA681A60FB687A68DA62FB683A68CF
:104C6000DA65FB68BA69C3F88420FB68FA69C3F89F
:104C70008820FB683A6AC3F88C20FB687A6AC3F81C
:104C80009020FB68BA6ADA60FB68FA6A5A60FB68CF
:104C900000229A60B7F934301A46396BF86801F08F
:104CA0007DFD00BF1037BD4680BD80B588B000AF28
:104CB000F860B9607A600123FB770023BB610023B1
:104CC0007B617B68002B14D1FB68DA68FB689B680A
:104CD000134400221A70FB68D968FB689B681A4667
:104CE000F868FFF7FDFE0346FB77FB6800229A6039
:104CF0007BE0FB685A68FB689B68D31A3B613A69A2
:104D00007B689A4210DCFB6800229A60FB68DA68D4
:104D1000FB689B68134400221A706FF4B571F86841
:104D200001F08CFE002361E0FB68DA68FB689B6899
:104D300013447A68B968184604F065FBFB689A6802
:104D40007B681A44FB689A60FB68DA68FB689B68BA
:104D5000134400221A70FB6803F16400FB68DA68F0
:104D6000BB69D118FB689A68BB69D31A1A4600F070
:104D700039FE78617B69BA691344BB61FB6893F8BB
:104D80008030012B1ED1FB68DB68BA691946F868D0
:104D9000FFF7A6FE0346FB77FB68D868FB68DA6876
:104DA000BB69D118FB689A68BB69D31A1A4604F02C
:104DB00056FAFB689A68BB69D21AFB689A600023AE
:104DC000BB61C8E7FB6893F864301A2B04D1FB6819
:104DD00093F88030002B05D0FB689B68BA699A4233
:104DE00002D2B8E700BF00E000BFFB7F18462037C3
:104DF000BD4680BD80B586B000AFF860B9607A600E
:104E000000237B61F868FFF765FD02467B69134468
:104E10007B617A68B968F868FFF726FD02467B690E
:104E200013447B61FB681B6B5A1CFB681A637B692C
:104E300018461837BD4680BD80B483B000AF034626
:104E4000FB7197F90730102B0AD0102B0ADC022BCC
:104E500002D0082B02D005E0064B04E0064B02E02E
:104E6000064B00E0002318460C37BD465DF8047B76
:104E7000704700BFE8B30008ECB30008F0B30008C7
:104E800080B592B002AFF860B96011461A460B4681
:104E9000FB711346BB710023FB6397F9072007F1F1
:104EA0001001BB79009313462122B86800F0D2FFAD
:104EB000B86397F907301846FFF7BEFF7863F868C4
:104EC000FFF708FD0246FB6B1344FB637B6B002B73
:104ED00008D00222796BF868FFF7C6FC0246FB6B2C
:104EE0001344FB6307F11003BA6B1946F868FFF728
:104EF000BBFC0246FB6B1344FB63FB681B6B5A1C39
:104F0000FB681A63FB6B18464037BD4680BD80B511
:104F100082B000AF78603960396801230A2278686E
:104F2000FFF7AEFF034618460837BD4680BD80B583
:104F300084B000AFF860B9601346FB7197F90720A1
:104F40000023B968F868FFF79BFF0346184610373F
:104F5000BD4680BD80B58AB000AF7860396000235F
:104F60007B62FF233B620023BB613B68B3F90030E7
:104F7000184601F075FD03463B613B691846FBF797
:104F800027F90346FB603B68B3F90030194678689F
:104F9000FFF7BDFF02467B6A13447B627868FFF728
:104FA00099FC02467B6A13447B6201226D49786852
:104FB000FFF75AFC02467B6A13447B620023FB61C5
:104FC000B3E0FB69012B09D17868FFF7B7FC024613
:104FD0007B6A13447B623B6A013B3B62FB699B003B
:104FE00028333B4453F81C3C3A6A9A4269D2FB6925
:104FF0009B0028333B443A6A43F81C2C61E0FB6970
:105000009B0028333B4453F8183C7A69D31A013388
:10501000BB61BA693B6A9A4210D3FB699B00283393
:105020003B4453F81C3C5A1EFB699B0028333B440D
:1050300043F81C2C3B6A013B3B6256E0FB699B003A
:1050400028333B4453F8183CBA6919467868FFF78F
:105050000BFC02467B6A13447B620122414978685B
:10506000FFF702FC02467B6A13447B62FB699B00EC
:1050700028333B4453F81C2CBB69D21AFB699B00B4
:1050800028333B4443F81C2C3A6ABB69D31A013BD2
:105090003B627B695A1CFB699B0028333B4443F805
:1050A000182CFB699B0028333B4453F81C3C3A6A9C
:1050B0009A4206D2FB699B0028333B443A6A43F884
:1050C0001C2CFB699B0028333B4453F8180CFB69EC
:1050D0009B0028333B4453F81C3C224A194600F0FD
:1050E00089FE78617B69002B89D1FB699B0028339D
:1050F0003B4453F8181CFB699B0028333B4453F88E
:105100001C3C1A467868FFF7AFFB02467B6A1344E3
:105110007B62FB699B0028333B4453F81C3C3A6A92
:10512000D31A3B62FB690133FB61FB69002B0BD196
:10513000FB699B0028333B4453F8183C002B03D0F9
:105140003B6A002B7FF43DAF012206497868FFF7E8
:105150008BFB02467B6A13447B627B6A18462837C6
:10516000BD4680BDF4B3000880B582B000AF786062
:105170000B46FB70FB78194600230A227868FFF77C
:105180007FFE034618460837BD4680BD80B483B015
:1051900000AF786039607B6800229A607B683A686B
:1051A0005A607B681A221A7000BF0C37BD465DF842
:1051B000047B704780B586B000AFF860B9601346D5
:1051C000FB71BB68002B05D12F49F86801F036FC54
:1051D000002355E00021B868FFF7D8FFFB681433BF
:1051E0007B617B695A687B691B68796989680B44B4
:1051F0009A420DD3FB79002B05D06FF06C01F86853
:1052000001F01CFC02E0BB6809221A70002337E0A1
:10521000FB685B6B002B12D0B968786902F029FE3D
:10522000BB681B78002B0AD00021B868FFF7AEFFDF
:105230006FF06601F86801F001FC002320E0FB68D4
:105240005B6B5A1CFB685A63FB681433B9681846D9
:1052500000F002FBBB681B780B2B02DC062B03DA89
:1052600004E00D3B032B01D8012309E00021B868BD
:10527000FFF78CFF6FF09601F86801F0DFFB002369
:1052800018461837BD4680BDCAFEFFFF80B483B004
:1052900000AF78600B46FB707B681B780B2B0AD045
:1052A0000B2B0ADC082B02DC062B02DA05E00A2BAA
:1052B00003D1012302E0FB7800E0002318460C37FD
:1052C000BD465DF8047B704780B584B000AFF860E0
:1052D000B9607A60FB707B68002B05D13349F868B0
:1052E00001F0ACFB00235DE0BB681B78063B052B9F
:1052F00057D801A252F823F0115300082D5300088B
:1053000049530008A353000865530008655300087B
:10531000BB685B6810227968184600F054FE0346AB
:10532000002B14BF01230023DBB23BE0BB685B68AA
:1053300008227968184600F046FE0346002B14BF89
:1053400001230023DBB22DE0BB685B680222796891
:10535000184600F038FE0346002B14BF012300233B
:10536000DBB21FE0FB78002B0DD0BB685B680A2224
:105370007968184600F00EFE0346002B14BF012387
:105380000023DBB20EE0BB685B680A22796818462E
:1053900000F019FE0346002B14BF01230023DBB2EB
:1053A00000E0002318461037BD4680BDCAFEFFFF4F
:1053B00080B584B000AFF860B9607A60FB707B683C
:1053C000002B05D13349F86801F038FB00235DE07C
:1053D000BB681B78063B052B57D801A252F823F077
:1053E000F953000815540008315400088B54000884
:1053F0004D5400084D540008BB685B681022796862
:10540000184600F014FE0346002B14BF01230023AE
:10541000DBB23BE0BB685B6808227968184600F0A5
:1054200006FE0346002B14BF01230023DBB22DE050
:10543000BB685B6802227968184600F0F8FD0346F5
:10544000002B14BF01230023DBB21FE0FB78002BED
:105450000DD0BB685B680A227968184600F0CCFD65
:105460000346002B14BF01230023DBB20EE0BB6810
:105470005B680A227968184600F0D9FD0346002BC4
:1054800014BF01230023DBB200E0002318461037CD
:10549000BD4680BDCAFEFFFF80B584B000AFF86096
:1054A000B9607A6001237A68B968F868FFF70CFF81
:1054B000034618461037BD4680BD80B584B000AFA6
:1054C000F860B9607A6000237A68B968F868FFF715
:1054D0006FFF034618461037BD4680BD80B588B0C3
:1054E00000AFF860B9607A607B68002B05D11D4978
:1054F000F86801F0A3FA00232FE0BB681B78082BA3
:1055000002DC062B04DA25E00A3B012B22D814E04A
:1055100007F110031A46B968F868FFF7CEFF034693
:10552000FB77D7E9042310461946FBF72FF802460C
:105530000B467968C1E900230EE0BB685B687968B7
:10554000184600F08FFD0346002B14BF01230023F3
:10555000FB7701E00023FB77FB7F18462037BD4631
:1055600080BD00BFCAFEFFFF80B588B000AFF86005
:10557000B96011461A460B46FB711346BB71BB68F6
:10558000002B05D12049F86801F058FA002337E0D4
:10559000FA7907F110031946F868FFF70BFE034686
:1055A000FB77FB7F002B2AD007F110030021184660
:1055B000FFF76CFE0346002B09D0BB7907F1100101
:1055C000BA68F868FFF780FE0346FB7717E007F13B
:1055D000100301211846FFF759FE0346002B07D0A0
:1055E0006FF08901F86801F029FA0023FB7706E0E3
:1055F0006FF06701F86801F021FA0023FB77FB7F69
:1056000018462037BD4680BDCAFEFFFF80B584B076
:1056100000AFF860B9601346FB71FA790123B968ED
:10562000F868FFF7A1FF034618461037BD4680BD56
:1056300090B589B002AFF860B9607A603B60002332
:10564000FB747B68002B02D03B68002B05D12949F5
:10565000F86801F0F3F9002348E0BB681B78092BD8
:105660003ED100237B6128E07B69DB007A6813442C
:105670001C687B69DB007A6813441B681846FAF7DC
:10568000A7FD0146BB685A68BB689B6818460023A3
:1056900000930346204600F0FBFD0346002B09D093
:1056A0007B69DB007A6813445A683B681A600123FF
:1056B000FB7409E07B6901337B617B69DB007A68FD
:1056C00013441B68002BCFD1FB7C83F00103DBB2BA
:1056D000002B0AD06FF0DF01F86801F0AFF904E0A9
:1056E0006FF06701F86801F0A9F9FB7C18461C37D8
:1056F000BD4690BDCAFEFFFF80B487B000AFF86022
:10570000B9607A6000237B6113E07B69DB00FA6893
:1057100013445B68BA689A4208D17B69DB00FA6877
:1057200013441A687B681A6001230AE07B6901331D
:105730007B617B69DB00FA6813441B68002BE4D1B2
:10574000002318461C37BD465DF8047B70470000F7
:1057500080B58AB000AFF860B9601346FB71BB68D2
:10576000002B05D12249F86801F068F900233AE0DE
:10577000FA7907F118031946F868FFF71BFD03468D
:1057800087F8273097F82730002B2AD03B7E0A2B4A
:1057900010D107F1140207F118031946F868FFF752
:1057A0007BFE7B69002B14BF01230023DAB2BB68A8
:1057B0001A7016E007F1140307F118010D4AF86892
:1057C000FFF736FF034687F8273097F82730002B7E
:1057D00007D07B69002B14BF01230023DAB2BB681A
:1057E0001A7097F8273018462837BD4680BD00BF8D
:1057F000CAFEFFFF7CBC000880B588B000AFF8602F
:10580000B9607A60FB70BB68002B02D07B68002B0C
:1058100005D11049F86801F011F9002315E0FA7874
:1058200007F110031946F868FFF7C4FC0346FB773D
:10583000FB7F002B08D007F110017B68BA68F8687D
:10584000FFF7F6FE0346FB77FB7F18462037BD4681
:1058500080BD00BFCAFEFFFF80B58AB000AF786090
:10586000396000237B6200233B6207F10C03194679
:10587000786801F083FD02463B6A13443B627B6A11
:10588000002B04D13968786801F0F8FF78627B6AF0
:10589000002B04D13968786801F058FE78627B6A81
:1058A000002B26D13968786801F0F4FE78627B6AB3
:1058B000002B1ED007F10C031946786801F05EFD3D
:1058C000F86107F10C031946786801F01EFFB86112
:1058D000BB69002B0DDD3B689A68F969BB690B4415
:1058E0001A443B689A603B680B221A703B689B68BD
:1058F0007B627B6A002B04D13968786802F0BAF8C1
:1059000078627B6A002B04D13968786802F05CF910
:1059100078627B6A002B04D13968786802F056FA05
:10592000786207F10C031946786801F027FD0246FA
:105930003B6A13443B627A6A3B6A13441846283731
:10594000BD4680BD80B58AB000AFF860B9607A60AE
:1059500000233B62BB684FF0FF329A60BB6818229D
:105960001A70FB685A68BB685A6001237B622AE0A0
:10597000BB689A687B6A1A44BB689A6007F1140393
:105980001946F868FFF768FF78623B7D1A2B06D04E
:10599000BB689A687B6A1A44BB689A6009E0BB6876
:1059A0001A221A70BB6800229A604FF0FF333B62E4
:1059B0000CE03B6A01333B6207F114031946F868B7
:1059C00002F057FA78627B6A002BD1D17B68002BFA
:1059D00002D07B683A6A1A60BB689B681846283711
:1059E000BD4680BD80B58CB000AFF860B9607A600C
:1059F0000023FB62BB687B627B6A3B627B68BB62A5
:105A0000FB6800229A6107F1140207F12003114696
:105A1000184601F0B3FCFA6807F120031146184656
:105A200001F033FD0346002B1EDB07F1140207F1E2
:105A300020031146184601F0A1FC0346002B0BDDA4
:105A4000FB6803F10C01FB6803F1180207F1200366
:105A50001846FFF777FF14E0FB680C337A6A1146AB
:105A60001846FFF793FB0CE0FB683A6A11461846AC
:105A7000FFF78CFBFB680C333A6A11461846FFF7B8
:105A800085FBFB6A002B08D107F1140207F1200304
:105A90001146184602F033FAF862FB6A002B08D16F
:105AA00007F1140207F120031146184602F004FA28
:105AB000F86207F12003184601F05AFA0346002B5A
:105AC00012D1FB6A002B0FD17B6A01337B62FB682A
:105AD00001229A60FB6819221A70FB680C333A6A3B
